{
  "contractName": "ApprovalContract",
  "abi": [
    {
      "constant": true,
      "inputs": [],
      "name": "approver",
      "outputs": [
        {
          "name": "",
          "type": "address"
        }
      ],
      "payable": false,
      "stateMutability": "view",
      "type": "function"
    },
    {
      "constant": true,
      "inputs": [],
      "name": "sender",
      "outputs": [
        {
          "name": "",
          "type": "address"
        }
      ],
      "payable": false,
      "stateMutability": "view",
      "type": "function"
    },
    {
      "constant": true,
      "inputs": [],
      "name": "receiver",
      "outputs": [
        {
          "name": "",
          "type": "address"
        }
      ],
      "payable": false,
      "stateMutability": "view",
      "type": "function"
    },
    {
      "constant": false,
      "inputs": [
        {
          "name": "_receiver",
          "type": "address"
        }
      ],
      "name": "deposit",
      "outputs": [],
      "payable": true,
      "stateMutability": "payable",
      "type": "function"
    },
    {
      "constant": true,
      "inputs": [],
      "name": "viewApprover",
      "outputs": [
        {
          "name": "",
          "type": "address"
        }
      ],
      "payable": false,
      "stateMutability": "pure",
      "type": "function"
    },
    {
      "constant": false,
      "inputs": [],
      "name": "approve",
      "outputs": [],
      "payable": false,
      "stateMutability": "nonpayable",
      "type": "function"
    }
  ],
  "bytecode": "0x608060405234801561001057600080fd5b50610434806100206000396000f300608060405260043610610078576000357c0100000000000000000000000000000000000000000000000000000000900463ffffffff16806312424e3f1461007d578063141a8dd81461009457806367e404ce146100eb578063d93ce89c14610142578063f340fa0114610199578063f7260d3e146101cf575b600080fd5b34801561008957600080fd5b50610092610226565b005b3480156100a057600080fd5b506100a96102f6565b604051808273ffffffffffffffffffffffffffffffffffffffff1673ffffffffffffffffffffffffffffffffffffffff16815260200191505060405180910390f35b3480156100f757600080fd5b5061010061030e565b604051808273ffffffffffffffffffffffffffffffffffffffff1673ffffffffffffffffffffffffffffffffffffffff16815260200191505060405180910390f35b34801561014e57600080fd5b50610157610333565b604051808273ffffffffffffffffffffffffffffffffffffffff1673ffffffffffffffffffffffffffffffffffffffff16815260200191505060405180910390f35b6101cd600480360381019080803573ffffffffffffffffffffffffffffffffffffffff16906020019092919050505061034f565b005b3480156101db57600080fd5b506101e46103e2565b604051808273ffffffffffffffffffffffffffffffffffffffff1673ffffffffffffffffffffffffffffffffffffffff16815260200191505060405180910390f35b73c5fdf4076b8f3a5357c5e395ab970b5b54098fef73ffffffffffffffffffffffffffffffffffffffff163373ffffffffffffffffffffffffffffffffffffffff1614151561027457600080fd5b600160009054906101000a900473ffffffffffffffffffffffffffffffffffffffff1673ffffffffffffffffffffffffffffffffffffffff166108fc3073ffffffffffffffffffffffffffffffffffffffff16319081150290604051600060405180830381858888f193505050501580156102f3573d6000803e3d6000fd5b50565b73c5fdf4076b8f3a5357c5e395ab970b5b54098fef81565b6000809054906101000a900473ffffffffffffffffffffffffffffffffffffffff1681565b600073c5fdf4076b8f3a5357c5e395ab970b5b54098fef905090565b60003411151561035e57600080fd5b336000806101000a81548173ffffffffffffffffffffffffffffffffffffffff021916908373ffffffffffffffffffffffffffffffffffffffff16021790555080600160006101000a81548173ffffffffffffffffffffffffffffffffffffffff021916908373ffffffffffffffffffffffffffffffffffffffff16021790555050565b600160009054906101000a900473ffffffffffffffffffffffffffffffffffffffff16815600a165627a7a72305820c4dcac60abf459658e67373f7f2269f2aab3aa81fbf5f2c0c61ffcdfc7f0e3850029",
  "source": "pragma solidity ^0.4.23;\n\ncontract ApprovalContract {\n\n  address public sender;\n  address public receiver;\n  address constant public approver = 0xC5fdf4076b8F3A5357c5E395ab970B5B54098Fef;\n\n  function deposit(address _receiver) external payable {\n    require(msg.value > 0);\n    sender = msg.sender;\n    receiver = _receiver;\n  }\n\n  // pure functions do not use much gas\n  function viewApprover() external pure returns(address){\n    return(approver);\n  }\n\n  function approve() external {\n    require(msg.sender == approver);\n    receiver.transfer(address(this).balance);\n  }\n\n\n\n\n}\n",
  "sourcePath": "/Users/matthewsmacbookpro/Dev/ETH_PROJECT/contracts/ApprovalContract.sol",
  "compiler": {
    "name": "solc",
    "version": "0.4.24+commit.e67f0147.Emscripten.clang"
  },
  "schemaVersion": "2.0.1",
  "updatedAt": "2018-11-02T03:04:34.298Z"
}